{
  "contractName": "OfficialStampContract",
  "abi": [
    {
      "inputs": [],
      "stateMutability": "nonpayable",
      "type": "constructor"
    },
    {
      "anonymous": false,
      "inputs": [
        {
          "indexed": true,
          "internalType": "address",
          "name": "owner",
          "type": "address"
        },
        {
          "indexed": true,
          "internalType": "address",
          "name": "approved",
          "type": "address"
        },
        {
          "indexed": true,
          "internalType": "uint256",
          "name": "tokenId",
          "type": "uint256"
        }
      ],
      "name": "Approval",
      "type": "event"
    },
    {
      "anonymous": false,
      "inputs": [
        {
          "indexed": true,
          "internalType": "address",
          "name": "owner",
          "type": "address"
        },
        {
          "indexed": true,
          "internalType": "address",
          "name": "operator",
          "type": "address"
        },
        {
          "indexed": false,
          "internalType": "bool",
          "name": "approved",
          "type": "bool"
        }
      ],
      "name": "ApprovalForAll",
      "type": "event"
    },
    {
      "anonymous": false,
      "inputs": [
        {
          "indexed": true,
          "internalType": "address",
          "name": "previousOwner",
          "type": "address"
        },
        {
          "indexed": true,
          "internalType": "address",
          "name": "newOwner",
          "type": "address"
        }
      ],
      "name": "OwnershipTransferred",
      "type": "event"
    },
    {
      "anonymous": false,
      "inputs": [
        {
          "indexed": true,
          "internalType": "address",
          "name": "from",
          "type": "address"
        },
        {
          "indexed": true,
          "internalType": "address",
          "name": "to",
          "type": "address"
        },
        {
          "indexed": true,
          "internalType": "uint256",
          "name": "tokenId",
          "type": "uint256"
        }
      ],
      "name": "Transfer",
      "type": "event"
    },
    {
      "inputs": [
        {
          "internalType": "address",
          "name": "to",
          "type": "address"
        },
        {
          "internalType": "uint256",
          "name": "tokenId",
          "type": "uint256"
        }
      ],
      "name": "approve",
      "outputs": [],
      "stateMutability": "nonpayable",
      "type": "function"
    },
    {
      "inputs": [
        {
          "internalType": "address",
          "name": "owner",
          "type": "address"
        }
      ],
      "name": "balanceOf",
      "outputs": [
        {
          "internalType": "uint256",
          "name": "",
          "type": "uint256"
        }
      ],
      "stateMutability": "view",
      "type": "function",
      "constant": true
    },
    {
      "inputs": [
        {
          "internalType": "uint256",
          "name": "tokenId",
          "type": "uint256"
        }
      ],
      "name": "getApproved",
      "outputs": [
        {
          "internalType": "address",
          "name": "",
          "type": "address"
        }
      ],
      "stateMutability": "view",
      "type": "function",
      "constant": true
    },
    {
      "inputs": [
        {
          "internalType": "address",
          "name": "owner",
          "type": "address"
        },
        {
          "internalType": "address",
          "name": "operator",
          "type": "address"
        }
      ],
      "name": "isApprovedForAll",
      "outputs": [
        {
          "internalType": "bool",
          "name": "",
          "type": "bool"
        }
      ],
      "stateMutability": "view",
      "type": "function",
      "constant": true
    },
    {
      "inputs": [],
      "name": "name",
      "outputs": [
        {
          "internalType": "string",
          "name": "",
          "type": "string"
        }
      ],
      "stateMutability": "view",
      "type": "function",
      "constant": true
    },
    {
      "inputs": [],
      "name": "owner",
      "outputs": [
        {
          "internalType": "address",
          "name": "",
          "type": "address"
        }
      ],
      "stateMutability": "view",
      "type": "function",
      "constant": true
    },
    {
      "inputs": [
        {
          "internalType": "uint256",
          "name": "tokenId",
          "type": "uint256"
        }
      ],
      "name": "ownerOf",
      "outputs": [
        {
          "internalType": "address",
          "name": "",
          "type": "address"
        }
      ],
      "stateMutability": "view",
      "type": "function",
      "constant": true
    },
    {
      "inputs": [],
      "name": "renounceOwnership",
      "outputs": [],
      "stateMutability": "nonpayable",
      "type": "function"
    },
    {
      "inputs": [
        {
          "internalType": "address",
          "name": "from",
          "type": "address"
        },
        {
          "internalType": "address",
          "name": "to",
          "type": "address"
        },
        {
          "internalType": "uint256",
          "name": "tokenId",
          "type": "uint256"
        }
      ],
      "name": "safeTransferFrom",
      "outputs": [],
      "stateMutability": "nonpayable",
      "type": "function"
    },
    {
      "inputs": [
        {
          "internalType": "address",
          "name": "from",
          "type": "address"
        },
        {
          "internalType": "address",
          "name": "to",
          "type": "address"
        },
        {
          "internalType": "uint256",
          "name": "tokenId",
          "type": "uint256"
        },
        {
          "internalType": "bytes",
          "name": "data",
          "type": "bytes"
        }
      ],
      "name": "safeTransferFrom",
      "outputs": [],
      "stateMutability": "nonpayable",
      "type": "function"
    },
    {
      "inputs": [
        {
          "internalType": "address",
          "name": "operator",
          "type": "address"
        },
        {
          "internalType": "bool",
          "name": "approved",
          "type": "bool"
        }
      ],
      "name": "setApprovalForAll",
      "outputs": [],
      "stateMutability": "nonpayable",
      "type": "function"
    },
    {
      "inputs": [
        {
          "internalType": "bytes4",
          "name": "interfaceId",
          "type": "bytes4"
        }
      ],
      "name": "supportsInterface",
      "outputs": [
        {
          "internalType": "bool",
          "name": "",
          "type": "bool"
        }
      ],
      "stateMutability": "view",
      "type": "function",
      "constant": true
    },
    {
      "inputs": [],
      "name": "symbol",
      "outputs": [
        {
          "internalType": "string",
          "name": "",
          "type": "string"
        }
      ],
      "stateMutability": "view",
      "type": "function",
      "constant": true
    },
    {
      "inputs": [
        {
          "internalType": "uint256",
          "name": "tokenId",
          "type": "uint256"
        }
      ],
      "name": "tokenURI",
      "outputs": [
        {
          "internalType": "string",
          "name": "",
          "type": "string"
        }
      ],
      "stateMutability": "view",
      "type": "function",
      "constant": true
    },
    {
      "inputs": [
        {
          "internalType": "address",
          "name": "from",
          "type": "address"
        },
        {
          "internalType": "address",
          "name": "to",
          "type": "address"
        },
        {
          "internalType": "uint256",
          "name": "tokenId",
          "type": "uint256"
        }
      ],
      "name": "transferFrom",
      "outputs": [],
      "stateMutability": "nonpayable",
      "type": "function"
    },
    {
      "inputs": [
        {
          "internalType": "address",
          "name": "newOwner",
          "type": "address"
        }
      ],
      "name": "transferOwnership",
      "outputs": [],
      "stateMutability": "nonpayable",
      "type": "function"
    },
    {
      "inputs": [
        {
          "internalType": "string",
          "name": "_name",
          "type": "string"
        },
        {
          "internalType": "uint256",
          "name": "_price",
          "type": "uint256"
        },
        {
          "internalType": "address",
          "name": "_to",
          "type": "address"
        }
      ],
      "name": "buyToken",
      "outputs": [
        {
          "internalType": "uint256",
          "name": "",
          "type": "uint256"
        }
      ],
      "stateMutability": "payable",
      "type": "function",
      "payable": true
    },
    {
      "inputs": [
        {
          "internalType": "address",
          "name": "_owner",
          "type": "address"
        }
      ],
      "name": "getAllTokensFromWallet",
      "outputs": [
        {
          "components": [
            {
              "internalType": "uint256",
              "name": "id",
              "type": "uint256"
            },
            {
              "internalType": "string",
              "name": "name",
              "type": "string"
            },
            {
              "internalType": "uint256",
              "name": "price",
              "type": "uint256"
            },
            {
              "internalType": "address",
              "name": "owner",
              "type": "address"
            }
          ],
          "internalType": "struct OfficialStampContract.OfficialStampToken[]",
          "name": "_OSC",
          "type": "tuple[]"
        }
      ],
      "stateMutability": "view",
      "type": "function",
      "constant": true
    }
  ],
  "bytecode": "0x608060405233600860006101000a81548173ffffffffffffffffffffffffffffffffffffffff021916908373ffffffffffffffffffffffffffffffffffffffff1602179055503480156200005257600080fd5b506040518060400160405280601781526020017f4f6666696369616c205374616d7020436f6e74726163740000000000000000008152506040518060400160405280600381526020017f4f534300000000000000000000000000000000000000000000000000000000008152508160009081620000d0919062000453565b508060019081620000e2919062000453565b50505062000105620000f96200010b60201b60201c565b6200011360201b60201c565b6200053a565b600033905090565b6000600660009054906101000a900473ffffffffffffffffffffffffffffffffffffffff16905081600660006101000a81548173ffffffffffffffffffffffffffffffffffffffff021916908373ffffffffffffffffffffffffffffffffffffffff1602179055508173ffffffffffffffffffffffffffffffffffffffff168173ffffffffffffffffffffffffffffffffffffffff167f8be0079c531659141344cd1fd0a4f28419497f9722a3daafe3b4186f6b6457e060405160405180910390a35050565b600081519050919050565b7f4e487b7100000000000000000000000000000000000000000000000000000000600052604160045260246000fd5b7f4e487b7100000000000000000000000000000000000000000000000000000000600052602260045260246000fd5b600060028204905060018216806200025b57607f821691505b60208210810362000271576200027062000213565b5b50919050565b60008190508160005260206000209050919050565b60006020601f8301049050919050565b600082821b905092915050565b600060088302620002db7fffffffffffffffffffffffffffffffffffffffffffffffffffffffffffffffff826200029c565b620002e786836200029c565b95508019841693508086168417925050509392505050565b6000819050919050565b6000819050919050565b6000620003346200032e6200032884620002ff565b62000309565b620002ff565b9050919050565b6000819050919050565b620003508362000313565b620003686200035f826200033b565b848454620002a9565b825550505050565b600090565b6200037f62000370565b6200038c81848462000345565b505050565b5b81811015620003b457620003a860008262000375565b60018101905062000392565b5050565b601f8211156200040357620003cd8162000277565b620003d8846200028c565b81016020851015620003e8578190505b62000400620003f7856200028c565b83018262000391565b50505b505050565b600082821c905092915050565b6000620004286000198460080262000408565b1980831691505092915050565b600062000443838362000415565b9150826002028217905092915050565b6200045e82620001d9565b67ffffffffffffffff8111156200047a5762000479620001e4565b5b62000486825462000242565b62000493828285620003b8565b600060209050601f831160018114620004cb5760008415620004b6578287015190505b620004c2858262000435565b86555062000532565b601f198416620004db8662000277565b60005b828110156200050557848901518255600182019150602085019450602081019050620004de565b8683101562000525578489015162000521601f89168262000415565b8355505b6001600288020188555050505b505050505050565b61342c806200054a6000396000f3fe6080604052600436106101095760003560e01c80638da5cb5b11610095578063b88d4fde11610064578063b88d4fde1461037b578063ba9b45ca146103a4578063c87b56dd146103d4578063e985e9c514610411578063f2fde38b1461044e57610109565b80638da5cb5b146102bf578063947d3ab1146102ea57806395d89b4114610327578063a22cb4651461035257610109565b806323b872dd116100dc57806323b872dd146101dc57806342842e0e146102055780636352211e1461022e57806370a082311461026b578063715018a6146102a857610109565b806301ffc9a71461010e57806306fdde031461014b578063081812fc14610176578063095ea7b3146101b3575b600080fd5b34801561011a57600080fd5b5061013560048036038101906101309190611fea565b610477565b6040516101429190612032565b60405180910390f35b34801561015757600080fd5b50610160610559565b60405161016d91906120dd565b60405180910390f35b34801561018257600080fd5b5061019d60048036038101906101989190612135565b6105eb565b6040516101aa91906121a3565b60405180910390f35b3480156101bf57600080fd5b506101da60048036038101906101d591906121ea565b610631565b005b3480156101e857600080fd5b5061020360048036038101906101fe919061222a565b610748565b005b34801561021157600080fd5b5061022c6004803603810190610227919061222a565b6107a8565b005b34801561023a57600080fd5b5061025560048036038101906102509190612135565b6107c8565b60405161026291906121a3565b60405180910390f35b34801561027757600080fd5b50610292600480360381019061028d919061227d565b61084e565b60405161029f91906122b9565b60405180910390f35b3480156102b457600080fd5b506102bd610905565b005b3480156102cb57600080fd5b506102d4610919565b6040516102e191906121a3565b60405180910390f35b3480156102f657600080fd5b50610311600480360381019061030c919061227d565b610943565b60405161031e9190612461565b60405180910390f35b34801561033357600080fd5b5061033c610add565b60405161034991906120dd565b60405180910390f35b34801561035e57600080fd5b50610379600480360381019061037491906124af565b610b6f565b005b34801561038757600080fd5b506103a2600480360381019061039d9190612624565b610b85565b005b6103be60048036038101906103b99190612748565b610be7565b6040516103cb91906122b9565b60405180910390f35b3480156103e057600080fd5b506103fb60048036038101906103f69190612135565b610dd6565b60405161040891906120dd565b60405180910390f35b34801561041d57600080fd5b50610438600480360381019061043391906127b7565b610e3e565b6040516104459190612032565b60405180910390f35b34801561045a57600080fd5b506104756004803603810190610470919061227d565b610ed2565b005b60007f80ac58cd000000000000000000000000000000000000000000000000000000007bffffffffffffffffffffffffffffffffffffffffffffffffffffffff1916827bffffffffffffffffffffffffffffffffffffffffffffffffffffffff1916148061054257507f5b5e139f000000000000000000000000000000000000000000000000000000007bffffffffffffffffffffffffffffffffffffffffffffffffffffffff1916827bffffffffffffffffffffffffffffffffffffffffffffffffffffffff1916145b80610552575061055182610f55565b5b9050919050565b60606000805461056890612826565b80601f016020809104026020016040519081016040528092919081815260200182805461059490612826565b80156105e15780601f106105b6576101008083540402835291602001916105e1565b820191906000526020600020905b8154815290600101906020018083116105c457829003601f168201915b5050505050905090565b60006105f682610fbf565b6004600083815260200190815260200160002060009054906101000a900473ffffffffffffffffffffffffffffffffffffffff169050919050565b600061063c826107c8565b90508073ffffffffffffffffffffffffffffffffffffffff168373ffffffffffffffffffffffffffffffffffffffff16036106ac576040517f08c379a00000000000000000000000000000000000000000000000000000000081526004016106a3906128c9565b60405180910390fd5b8073ffffffffffffffffffffffffffffffffffffffff166106cb61100a565b73ffffffffffffffffffffffffffffffffffffffff1614806106fa57506106f9816106f461100a565b610e3e565b5b610739576040517f08c379a00000000000000000000000000000000000000000000000000000000081526004016107309061295b565b60405180910390fd5b6107438383611012565b505050565b61075961075361100a565b826110cb565b610798576040517f08c379a000000000000000000000000000000000000000000000000000000000815260040161078f906129ed565b60405180910390fd5b6107a3838383611160565b505050565b6107c383838360405180602001604052806000815250610b85565b505050565b6000806107d483611459565b9050600073ffffffffffffffffffffffffffffffffffffffff168173ffffffffffffffffffffffffffffffffffffffff1603610845576040517f08c379a000000000000000000000000000000000000000000000000000000000815260040161083c90612a59565b60405180910390fd5b80915050919050565b60008073ffffffffffffffffffffffffffffffffffffffff168273ffffffffffffffffffffffffffffffffffffffff16036108be576040517f08c379a00000000000000000000000000000000000000000000000000000000081526004016108b590612aeb565b60405180910390fd5b600360008373ffffffffffffffffffffffffffffffffffffffff1673ffffffffffffffffffffffffffffffffffffffff168152602001908152602001600020549050919050565b61090d611496565b6109176000611514565b565b6000600660009054906101000a900473ffffffffffffffffffffffffffffffffffffffff16905090565b6060600960008373ffffffffffffffffffffffffffffffffffffffff1673ffffffffffffffffffffffffffffffffffffffff168152602001908152602001600020805480602002602001604051908101604052809291908181526020016000905b82821015610ad25783829060005260206000209060040201604051806080016040529081600082015481526020016001820180546109e190612826565b80601f0160208091040260200160405190810160405280929190818152602001828054610a0d90612826565b8015610a5a5780601f10610a2f57610100808354040283529160200191610a5a565b820191906000526020600020905b815481529060010190602001808311610a3d57829003601f168201915b50505050508152602001600282015481526020016003820160009054906101000a900473ffffffffffffffffffffffffffffffffffffffff1673ffffffffffffffffffffffffffffffffffffffff1673ffffffffffffffffffffffffffffffffffffffff1681525050815260200190600101906109a4565b505050509050919050565b606060018054610aec90612826565b80601f0160208091040260200160405190810160405280929190818152602001828054610b1890612826565b8015610b655780601f10610b3a57610100808354040283529160200191610b65565b820191906000526020600020905b815481529060010190602001808311610b4857829003601f168201915b5050505050905090565b610b81610b7a61100a565b83836115da565b5050565b610b96610b9061100a565b836110cb565b610bd5576040517f08c379a0000000000000000000000000000000000000000000000000000000008152600401610bcc906129ed565b60405180910390fd5b610be184848484611746565b50505050565b600080610bf26117a2565b9050610bfd81611459565b73ffffffffffffffffffffffffffffffffffffffff16600860009054906101000a900473ffffffffffffffffffffffffffffffffffffffff1673ffffffffffffffffffffffffffffffffffffffff1614610c8c576040517f08c379a0000000000000000000000000000000000000000000000000000000008152600401610c8390612b57565b60405180910390fd5b610cb9600860009054906101000a900473ffffffffffffffffffffffffffffffffffffffff168483611160565b600960008473ffffffffffffffffffffffffffffffffffffffff1673ffffffffffffffffffffffffffffffffffffffff16815260200190815260200160002060405180608001604052808381526020018781526020018681526020018573ffffffffffffffffffffffffffffffffffffffff168152509080600181540180825580915050600190039060005260206000209060040201600090919091909150600082015181600001556020820151816001019081610d779190612d23565b506040820151816002015560608201518160030160006101000a81548173ffffffffffffffffffffffffffffffffffffffff021916908373ffffffffffffffffffffffffffffffffffffffff1602179055505050809150509392505050565b6060610de182610fbf565b6000610deb6117ee565b90506000815111610e0b5760405180602001604052806000815250610e36565b80610e1584611805565b604051602001610e26929190612e31565b6040516020818303038152906040525b915050919050565b6000600560008473ffffffffffffffffffffffffffffffffffffffff1673ffffffffffffffffffffffffffffffffffffffff16815260200190815260200160002060008373ffffffffffffffffffffffffffffffffffffffff1673ffffffffffffffffffffffffffffffffffffffff16815260200190815260200160002060009054906101000a900460ff16905092915050565b610eda611496565b600073ffffffffffffffffffffffffffffffffffffffff168173ffffffffffffffffffffffffffffffffffffffff1603610f49576040517f08c379a0000000000000000000000000000000000000000000000000000000008152600401610f4090612ec7565b60405180910390fd5b610f5281611514565b50565b60007f01ffc9a7000000000000000000000000000000000000000000000000000000007bffffffffffffffffffffffffffffffffffffffffffffffffffffffff1916827bffffffffffffffffffffffffffffffffffffffffffffffffffffffff1916149050919050565b610fc8816118d3565b611007576040517f08c379a0000000000000000000000000000000000000000000000000000000008152600401610ffe90612a59565b60405180910390fd5b50565b600033905090565b816004600083815260200190815260200160002060006101000a81548173ffffffffffffffffffffffffffffffffffffffff021916908373ffffffffffffffffffffffffffffffffffffffff160217905550808273ffffffffffffffffffffffffffffffffffffffff16611085836107c8565b73ffffffffffffffffffffffffffffffffffffffff167f8c5be1e5ebec7d5bd14f71427d1e84f3dd0314c0f7b2291e5b200ac8c7c3b92560405160405180910390a45050565b6000806110d7836107c8565b90508073ffffffffffffffffffffffffffffffffffffffff168473ffffffffffffffffffffffffffffffffffffffff16148061111957506111188185610e3e565b5b8061115757508373ffffffffffffffffffffffffffffffffffffffff1661113f846105eb565b73ffffffffffffffffffffffffffffffffffffffff16145b91505092915050565b8273ffffffffffffffffffffffffffffffffffffffff16611180826107c8565b73ffffffffffffffffffffffffffffffffffffffff16146111d6576040517f08c379a00000000000000000000000000000000000000000000000000000000081526004016111cd90612f59565b60405180910390fd5b600073ffffffffffffffffffffffffffffffffffffffff168273ffffffffffffffffffffffffffffffffffffffff1603611245576040517f08c379a000000000000000000000000000000000000000000000000000000000815260040161123c90612feb565b60405180910390fd5b6112528383836001611914565b8273ffffffffffffffffffffffffffffffffffffffff16611272826107c8565b73ffffffffffffffffffffffffffffffffffffffff16146112c8576040517f08c379a00000000000000000000000000000000000000000000000000000000081526004016112bf90612f59565b60405180910390fd5b6004600082815260200190815260200160002060006101000a81549073ffffffffffffffffffffffffffffffffffffffff02191690556001600360008573ffffffffffffffffffffffffffffffffffffffff1673ffffffffffffffffffffffffffffffffffffffff168152602001908152602001600020600082825403925050819055506001600360008473ffffffffffffffffffffffffffffffffffffffff1673ffffffffffffffffffffffffffffffffffffffff16815260200190815260200160002060008282540192505081905550816002600083815260200190815260200160002060006101000a81548173ffffffffffffffffffffffffffffffffffffffff021916908373ffffffffffffffffffffffffffffffffffffffff160217905550808273ffffffffffffffffffffffffffffffffffffffff168473ffffffffffffffffffffffffffffffffffffffff167fddf252ad1be2c89b69c2b068fc378daa952ba7f163c4a11628f55a4df523b3ef60405160405180910390a46114548383836001611a3a565b505050565b60006002600083815260200190815260200160002060009054906101000a900473ffffffffffffffffffffffffffffffffffffffff169050919050565b61149e61100a565b73ffffffffffffffffffffffffffffffffffffffff166114bc610919565b73ffffffffffffffffffffffffffffffffffffffff1614611512576040517f08c379a000000000000000000000000000000000000000000000000000000000815260040161150990613057565b60405180910390fd5b565b6000600660009054906101000a900473ffffffffffffffffffffffffffffffffffffffff16905081600660006101000a81548173ffffffffffffffffffffffffffffffffffffffff021916908373ffffffffffffffffffffffffffffffffffffffff1602179055508173ffffffffffffffffffffffffffffffffffffffff168173ffffffffffffffffffffffffffffffffffffffff167f8be0079c531659141344cd1fd0a4f28419497f9722a3daafe3b4186f6b6457e060405160405180910390a35050565b8173ffffffffffffffffffffffffffffffffffffffff168373ffffffffffffffffffffffffffffffffffffffff1603611648576040517f08c379a000000000000000000000000000000000000000000000000000000000815260040161163f906130c3565b60405180910390fd5b80600560008573ffffffffffffffffffffffffffffffffffffffff1673ffffffffffffffffffffffffffffffffffffffff16815260200190815260200160002060008473ffffffffffffffffffffffffffffffffffffffff1673ffffffffffffffffffffffffffffffffffffffff16815260200190815260200160002060006101000a81548160ff0219169083151502179055508173ffffffffffffffffffffffffffffffffffffffff168373ffffffffffffffffffffffffffffffffffffffff167f17307eab39ab6107e8899845ad3d59bd9653f200f220920489ca2b5937696c31836040516117399190612032565b60405180910390a3505050565b611751848484611160565b61175d84848484611a40565b61179c576040517f08c379a000000000000000000000000000000000000000000000000000000000815260040161179390613155565b60405180910390fd5b50505050565b6000806117af6007611bc7565b90506117bb6007611bd5565b6117e7600860009054906101000a900473ffffffffffffffffffffffffffffffffffffffff1682611beb565b8091505090565b606060405180602001604052806000815250905090565b60606000600161181484611e08565b01905060008167ffffffffffffffff811115611833576118326124f9565b5b6040519080825280601f01601f1916602001820160405280156118655781602001600182028036833780820191505090505b509050600082602001820190505b6001156118c8578080600190039150507f3031323334353637383961626364656600000000000000000000000000000000600a86061a8153600a85816118bc576118bb613175565b5b04945060008503611873575b819350505050919050565b60008073ffffffffffffffffffffffffffffffffffffffff166118f583611459565b73ffffffffffffffffffffffffffffffffffffffff1614159050919050565b6001811115611a3457600073ffffffffffffffffffffffffffffffffffffffff168473ffffffffffffffffffffffffffffffffffffffff16146119a85780600360008673ffffffffffffffffffffffffffffffffffffffff1673ffffffffffffffffffffffffffffffffffffffff16815260200190815260200160002060008282546119a091906131d3565b925050819055505b600073ffffffffffffffffffffffffffffffffffffffff168373ffffffffffffffffffffffffffffffffffffffff1614611a335780600360008573ffffffffffffffffffffffffffffffffffffffff1673ffffffffffffffffffffffffffffffffffffffff1681526020019081526020016000206000828254611a2b9190613207565b925050819055505b5b50505050565b50505050565b6000611a618473ffffffffffffffffffffffffffffffffffffffff16611f5b565b15611bba578373ffffffffffffffffffffffffffffffffffffffff1663150b7a02611a8a61100a565b8786866040518563ffffffff1660e01b8152600401611aac9493929190613290565b6020604051808303816000875af1925050508015611ae857506040513d601f19601f82011682018060405250810190611ae591906132f1565b60015b611b6a573d8060008114611b18576040519150601f19603f3d011682016040523d82523d6000602084013e611b1d565b606091505b506000815103611b62576040517f08c379a0000000000000000000000000000000000000000000000000000000008152600401611b5990613155565b60405180910390fd5b805181602001fd5b63150b7a0260e01b7bffffffffffffffffffffffffffffffffffffffffffffffffffffffff1916817bffffffffffffffffffffffffffffffffffffffffffffffffffffffff191614915050611bbf565b600190505b949350505050565b600081600001549050919050565b6001816000016000828254019250508190555050565b600073ffffffffffffffffffffffffffffffffffffffff168273ffffffffffffffffffffffffffffffffffffffff1603611c5a576040517f08c379a0000000000000000000000000000000000000000000000000000000008152600401611c519061336a565b60405180910390fd5b611c63816118d3565b15611ca3576040517f08c379a0000000000000000000000000000000000000000000000000000000008152600401611c9a906133d6565b60405180910390fd5b611cb1600083836001611914565b611cba816118d3565b15611cfa576040517f08c379a0000000000000000000000000000000000000000000000000000000008152600401611cf1906133d6565b60405180910390fd5b6001600360008473ffffffffffffffffffffffffffffffffffffffff1673ffffffffffffffffffffffffffffffffffffffff16815260200190815260200160002060008282540192505081905550816002600083815260200190815260200160002060006101000a81548173ffffffffffffffffffffffffffffffffffffffff021916908373ffffffffffffffffffffffffffffffffffffffff160217905550808273ffffffffffffffffffffffffffffffffffffffff16600073ffffffffffffffffffffffffffffffffffffffff167fddf252ad1be2c89b69c2b068fc378daa952ba7f163c4a11628f55a4df523b3ef60405160405180910390a4611e04600083836001611a3a565b5050565b600080600090507a184f03e93ff9f4daa797ed6e38ed64bf6a1f0100000000000000008310611e66577a184f03e93ff9f4daa797ed6e38ed64bf6a1f0100000000000000008381611e5c57611e5b613175565b5b0492506040810190505b6d04ee2d6d415b85acef81000000008310611ea3576d04ee2d6d415b85acef81000000008381611e9957611e98613175565b5b0492506020810190505b662386f26fc100008310611ed257662386f26fc100008381611ec857611ec7613175565b5b0492506010810190505b6305f5e1008310611efb576305f5e1008381611ef157611ef0613175565b5b0492506008810190505b6127108310611f20576127108381611f1657611f15613175565b5b0492506004810190505b60648310611f435760648381611f3957611f38613175565b5b0492506002810190505b600a8310611f52576001810190505b80915050919050565b6000808273ffffffffffffffffffffffffffffffffffffffff163b119050919050565b6000604051905090565b600080fd5b600080fd5b60007fffffffff0000000000000000000000000000000000000000000000000000000082169050919050565b611fc781611f92565b8114611fd257600080fd5b50565b600081359050611fe481611fbe565b92915050565b60006020828403121561200057611fff611f88565b5b600061200e84828501611fd5565b91505092915050565b60008115159050919050565b61202c81612017565b82525050565b60006020820190506120476000830184612023565b92915050565b600081519050919050565b600082825260208201905092915050565b60005b8381101561208757808201518184015260208101905061206c565b60008484015250505050565b6000601f19601f8301169050919050565b60006120af8261204d565b6120b98185612058565b93506120c9818560208601612069565b6120d281612093565b840191505092915050565b600060208201905081810360008301526120f781846120a4565b905092915050565b6000819050919050565b612112816120ff565b811461211d57600080fd5b50565b60008135905061212f81612109565b92915050565b60006020828403121561214b5761214a611f88565b5b600061215984828501612120565b91505092915050565b600073ffffffffffffffffffffffffffffffffffffffff82169050919050565b600061218d82612162565b9050919050565b61219d81612182565b82525050565b60006020820190506121b86000830184612194565b92915050565b6121c781612182565b81146121d257600080fd5b50565b6000813590506121e4816121be565b92915050565b6000806040838503121561220157612200611f88565b5b600061220f858286016121d5565b925050602061222085828601612120565b9150509250929050565b60008060006060848603121561224357612242611f88565b5b6000612251868287016121d5565b9350506020612262868287016121d5565b925050604061227386828701612120565b9150509250925092565b60006020828403121561229357612292611f88565b5b60006122a1848285016121d5565b91505092915050565b6122b3816120ff565b82525050565b60006020820190506122ce60008301846122aa565b92915050565b600081519050919050565b600082825260208201905092915050565b6000819050602082019050919050565b612309816120ff565b82525050565b600082825260208201905092915050565b600061232b8261204d565b612335818561230f565b9350612345818560208601612069565b61234e81612093565b840191505092915050565b61236281612182565b82525050565b60006080830160008301516123806000860182612300565b50602083015184820360208601526123988282612320565b91505060408301516123ad6040860182612300565b5060608301516123c06060860182612359565b508091505092915050565b60006123d78383612368565b905092915050565b6000602082019050919050565b60006123f7826122d4565b61240181856122df565b935083602082028501612413856122f0565b8060005b8581101561244f578484038952815161243085826123cb565b945061243b836123df565b925060208a01995050600181019050612417565b50829750879550505050505092915050565b6000602082019050818103600083015261247b81846123ec565b905092915050565b61248c81612017565b811461249757600080fd5b50565b6000813590506124a981612483565b92915050565b600080604083850312156124c6576124c5611f88565b5b60006124d4858286016121d5565b92505060206124e58582860161249a565b9150509250929050565b600080fd5b600080fd5b7f4e487b7100000000000000000000000000000000000000000000000000000000600052604160045260246000fd5b61253182612093565b810181811067ffffffffffffffff821117156125505761254f6124f9565b5b80604052505050565b6000612563611f7e565b905061256f8282612528565b919050565b600067ffffffffffffffff82111561258f5761258e6124f9565b5b61259882612093565b9050602081019050919050565b82818337600083830152505050565b60006125c76125c284612574565b612559565b9050828152602081018484840111156125e3576125e26124f4565b5b6125ee8482856125a5565b509392505050565b600082601f83011261260b5761260a6124ef565b5b813561261b8482602086016125b4565b91505092915050565b6000806000806080858703121561263e5761263d611f88565b5b600061264c878288016121d5565b945050602061265d878288016121d5565b935050604061266e87828801612120565b925050606085013567ffffffffffffffff81111561268f5761268e611f8d565b5b61269b878288016125f6565b91505092959194509250565b600067ffffffffffffffff8211156126c2576126c16124f9565b5b6126cb82612093565b9050602081019050919050565b60006126eb6126e6846126a7565b612559565b905082815260208101848484011115612707576127066124f4565b5b6127128482856125a5565b509392505050565b600082601f83011261272f5761272e6124ef565b5b813561273f8482602086016126d8565b91505092915050565b60008060006060848603121561276157612760611f88565b5b600084013567ffffffffffffffff81111561277f5761277e611f8d565b5b61278b8682870161271a565b935050602061279c86828701612120565b92505060406127ad868287016121d5565b9150509250925092565b600080604083850312156127ce576127cd611f88565b5b60006127dc858286016121d5565b92505060206127ed858286016121d5565b9150509250929050565b7f4e487b7100000000000000000000000000000000000000000000000000000000600052602260045260246000fd5b6000600282049050600182168061283e57607f821691505b602082108103612851576128506127f7565b5b50919050565b7f4552433732313a20617070726f76616c20746f2063757272656e74206f776e6560008201527f7200000000000000000000000000000000000000000000000000000000000000602082015250565b60006128b3602183612058565b91506128be82612857565b604082019050919050565b600060208201905081810360008301526128e2816128a6565b9050919050565b7f4552433732313a20617070726f76652063616c6c6572206973206e6f7420746f60008201527f6b656e206f776e6572206f7220617070726f76656420666f7220616c6c000000602082015250565b6000612945603d83612058565b9150612950826128e9565b604082019050919050565b6000602082019050818103600083015261297481612938565b9050919050565b7f4552433732313a2063616c6c6572206973206e6f7420746f6b656e206f776e6560008201527f72206f7220617070726f76656400000000000000000000000000000000000000602082015250565b60006129d7602d83612058565b91506129e28261297b565b604082019050919050565b60006020820190508181036000830152612a06816129ca565b9050919050565b7f4552433732313a20696e76616c696420746f6b656e2049440000000000000000600082015250565b6000612a43601883612058565b9150612a4e82612a0d565b602082019050919050565b60006020820190508181036000830152612a7281612a36565b9050919050565b7f4552433732313a2061646472657373207a65726f206973206e6f74206120766160008201527f6c6964206f776e65720000000000000000000000000000000000000000000000602082015250565b6000612ad5602983612058565b9150612ae082612a79565b604082019050919050565b60006020820190508181036000830152612b0481612ac8565b9050919050565b7f4a757374206f776e65722063616e207472616e7366657220746f6b656e000000600082015250565b6000612b41601d83612058565b9150612b4c82612b0b565b602082019050919050565b60006020820190508181036000830152612b7081612b34565b9050919050565b60008190508160005260206000209050919050565b60006020601f8301049050919050565b600082821b905092915050565b600060088302612bd97fffffffffffffffffffffffffffffffffffffffffffffffffffffffffffffffff82612b9c565b612be38683612b9c565b95508019841693508086168417925050509392505050565b6000819050919050565b6000612c20612c1b612c16846120ff565b612bfb565b6120ff565b9050919050565b6000819050919050565b612c3a83612c05565b612c4e612c4682612c27565b848454612ba9565b825550505050565b600090565b612c63612c56565b612c6e818484612c31565b505050565b5b81811015612c9257612c87600082612c5b565b600181019050612c74565b5050565b601f821115612cd757612ca881612b77565b612cb184612b8c565b81016020851015612cc0578190505b612cd4612ccc85612b8c565b830182612c73565b50505b505050565b600082821c905092915050565b6000612cfa60001984600802612cdc565b1980831691505092915050565b6000612d138383612ce9565b9150826002028217905092915050565b612d2c8261204d565b67ffffffffffffffff811115612d4557612d446124f9565b5b612d4f8254612826565b612d5a828285612c96565b600060209050601f831160018114612d8d5760008415612d7b578287015190505b612d858582612d07565b865550612ded565b601f198416612d9b86612b77565b60005b82811015612dc357848901518255600182019150602085019450602081019050612d9e565b86831015612de05784890151612ddc601f891682612ce9565b8355505b6001600288020188555050505b505050505050565b600081905092915050565b6000612e0b8261204d565b612e158185612df5565b9350612e25818560208601612069565b80840191505092915050565b6000612e3d8285612e00565b9150612e498284612e00565b91508190509392505050565b7f4f776e61626c653a206e6577206f776e657220697320746865207a65726f206160008201527f6464726573730000000000000000000000000000000000000000000000000000602082015250565b6000612eb1602683612058565b9150612ebc82612e55565b604082019050919050565b60006020820190508181036000830152612ee081612ea4565b9050919050565b7f4552433732313a207472616e736665722066726f6d20696e636f72726563742060008201527f6f776e6572000000000000000000000000000000000000000000000000000000602082015250565b6000612f43602583612058565b9150612f4e82612ee7565b604082019050919050565b60006020820190508181036000830152612f7281612f36565b9050919050565b7f4552433732313a207472616e7366657220746f20746865207a65726f2061646460008201527f7265737300000000000000000000000000000000000000000000000000000000602082015250565b6000612fd5602483612058565b9150612fe082612f79565b604082019050919050565b6000602082019050818103600083015261300481612fc8565b9050919050565b7f4f776e61626c653a2063616c6c6572206973206e6f7420746865206f776e6572600082015250565b6000613041602083612058565b915061304c8261300b565b602082019050919050565b6000602082019050818103600083015261307081613034565b9050919050565b7f4552433732313a20617070726f766520746f2063616c6c657200000000000000600082015250565b60006130ad601983612058565b91506130b882613077565b602082019050919050565b600060208201905081810360008301526130dc816130a0565b9050919050565b7f4552433732313a207472616e7366657220746f206e6f6e20455243373231526560008201527f63656976657220696d706c656d656e7465720000000000000000000000000000602082015250565b600061313f603283612058565b915061314a826130e3565b604082019050919050565b6000602082019050818103600083015261316e81613132565b9050919050565b7f4e487b7100000000000000000000000000000000000000000000000000000000600052601260045260246000fd5b7f4e487b7100000000000000000000000000000000000000000000000000000000600052601160045260246000fd5b60006131de826120ff565b91506131e9836120ff565b9250828203905081811115613201576132006131a4565b5b92915050565b6000613212826120ff565b915061321d836120ff565b9250828201905080821115613235576132346131a4565b5b92915050565b600081519050919050565b600082825260208201905092915050565b60006132628261323b565b61326c8185613246565b935061327c818560208601612069565b61328581612093565b840191505092915050565b60006080820190506132a56000830187612194565b6132b26020830186612194565b6132bf60408301856122aa565b81810360608301526132d18184613257565b905095945050505050565b6000815190506132eb81611fbe565b92915050565b60006020828403121561330757613306611f88565b5b6000613315848285016132dc565b91505092915050565b7f4552433732313a206d696e7420746f20746865207a65726f2061646472657373600082015250565b6000613354602083612058565b915061335f8261331e565b602082019050919050565b6000602082019050818103600083015261338381613347565b9050919050565b7f4552433732313a20746f6b656e20616c7265616479206d696e74656400000000600082015250565b60006133c0601c83612058565b91506133cb8261338a565b602082019050919050565b600060208201905081810360008301526133ef816133b3565b905091905056fea2646970667358221220e323f7e47ee22432097d70ef5babd0436923c7fc8a258bdcbd5cb8f26b34ca2c64736f6c63430008110033",
  "immutableReferences": {},
  "source": "// SPDX-License-Identifier: MIT\r\npragma solidity >=0.8.0 <0.9.0;\r\n\r\nimport \"../node_modules/@openzeppelin/contracts/token/ERC721/ERC721.sol\";\r\nimport \"../node_modules/@openzeppelin/contracts/access/Ownable.sol\";\r\nimport \"../node_modules/@openzeppelin/contracts/utils/Counters.sol\";\r\n\r\ncontract OfficialStampContract is ERC721, Ownable {\r\n    using Counters for Counters.Counter;\r\n    Counters.Counter private _tokenIdCounter;\r\n    address sender = msg.sender;\r\n\r\n    constructor() ERC721(\"Official Stamp Contract\", \"OSC\") {}\r\n\r\n    mapping(address => OfficialStampToken[]) OSC;\r\n\r\n    struct OfficialStampToken {\r\n        uint256 id;\r\n        string name;\r\n        uint256 price;\r\n        address owner;\r\n    }\r\n\r\n    function createOfficialStampToken() private returns (uint256) {\r\n        uint256 id = _tokenIdCounter.current();\r\n        _tokenIdCounter.increment();\r\n        _mint(sender, id);\r\n        return id;\r\n    }\r\n\r\n    function buyToken(\r\n        string memory _name,\r\n        uint256 _price,\r\n        address _to\r\n    ) external payable returns (uint256) {\r\n        uint256 token = createOfficialStampToken();\r\n\r\n        require(sender == _ownerOf(token), \"Just owner can transfer token\");\r\n\r\n        _transfer(sender, _to, token);\r\n\r\n        OSC[_to].push(OfficialStampToken(token, _name, _price, _to));\r\n\r\n        return token;\r\n    }\r\n\r\n    function getAllTokensFromWallet(\r\n        address _owner\r\n    ) external view returns (OfficialStampToken[] memory _OSC) {\r\n        return OSC[_owner];\r\n    }\r\n}\r\n",
  "sourcePath": "C:\\Users\\g.castro\\dev\\sidi\\official-stamps-api\\solidity\\contracts\\OfficialStampContract.sol",
  "compiler": {
    "name": "solc",
    "version": "0.8.17+commit.8df45f5f.Emscripten.clang"
  },
  "schemaVersion": "3.4.12",
  "updatedAt": "2023-03-08T17:27:46.429Z",
  "networkType": "ethereum",
  "devdoc": {
    "kind": "dev",
    "methods": {
      "approve(address,uint256)": {
        "details": "See {IERC721-approve}."
      },
      "balanceOf(address)": {
        "details": "See {IERC721-balanceOf}."
      },
      "getApproved(uint256)": {
        "details": "See {IERC721-getApproved}."
      },
      "isApprovedForAll(address,address)": {
        "details": "See {IERC721-isApprovedForAll}."
      },
      "name()": {
        "details": "See {IERC721Metadata-name}."
      },
      "owner()": {
        "details": "Returns the address of the current owner."
      },
      "ownerOf(uint256)": {
        "details": "See {IERC721-ownerOf}."
      },
      "renounceOwnership()": {
        "details": "Leaves the contract without owner. It will not be possible to call `onlyOwner` functions anymore. Can only be called by the current owner. NOTE: Renouncing ownership will leave the contract without an owner, thereby removing any functionality that is only available to the owner."
      },
      "safeTransferFrom(address,address,uint256)": {
        "details": "See {IERC721-safeTransferFrom}."
      },
      "safeTransferFrom(address,address,uint256,bytes)": {
        "details": "See {IERC721-safeTransferFrom}."
      },
      "setApprovalForAll(address,bool)": {
        "details": "See {IERC721-setApprovalForAll}."
      },
      "supportsInterface(bytes4)": {
        "details": "See {IERC165-supportsInterface}."
      },
      "symbol()": {
        "details": "See {IERC721Metadata-symbol}."
      },
      "tokenURI(uint256)": {
        "details": "See {IERC721Metadata-tokenURI}."
      },
      "transferFrom(address,address,uint256)": {
        "details": "See {IERC721-transferFrom}."
      },
      "transferOwnership(address)": {
        "details": "Transfers ownership of the contract to a new account (`newOwner`). Can only be called by the current owner."
      }
    },
    "version": 1
  },
  "userdoc": {
    "kind": "user",
    "methods": {},
    "version": 1
  }
}